:100000000C9463020C9480020C9480020C94800285
:100010000C9480020C9480020C9480020C94800258
:100020000C9480020C9480020C9434110C94F01007
:100030000C9454210C9480020C9480020C94800245
:100040000C9480020C9480020C9480020C94800228
:100050000C9480020C943E0D0C9480020C9480024F
:100060000C9480020C9480020C9480020C94800208
:100070000C9480020C9480020C9480020C948002F8
:100080000C9480020C9480020C9480020C948002E8
:100090000C9480020C9480020C9480020C948002D8
:1000A0000C9480020C9480020C94800229412B0055
:1000B000E202E100E00000001E00140004001D0048
:1000C000E2004D001F001A0016001B0001002D6405
:1000D000200008000700060035002A6821001500EE
:1000E0000900190034430B0A220017000A0005001A
:1000F00000001A082E00576A0000E00200004A00C3
:10010000170633020000040100004B0023001C000E
:100110000B00110000004C00240018000D0010001E
:100120002F000F0A25000C000E00360030002C7145
:10013000260012000F003700035D2800270013007F
:1001400033003800055D4E00350231423400E500D1
:10015000065D0000010001000100E100E000000078
:10016000E20001000100010001000100E2020100C3
:100170000100010001000100010001000100010077
:100180000100010001000100010001000100010067
:100190000100010001000100000001000100010058
:1001A000000001000000010037070100000001000D
:1001B00000000100010001005000010000000100EA
:1001C0000100010051004E000100010001004B0040
:1001D0005200010001004400010001004F00010035
:1001E000045D430001000100010001000100010065
:1001F000460001007E00E500075D000001000100EF
:100200000100010001000000FD000100F2000100FA
:1002100001000100FE00F000F10001000100F50006
:10022000FF000100F30001000100F40001000100E3
:1002300001000100010001000100010001000100B6
:10024000000001000100F9000000FA0000000100B8
:100250000100010000000100000001000100010098
:100260000100010000000100010001000100010087
:100270000100010001000100010001000100010076
:100280000100010001000100010001000100010066
:100290000100010001000100010001000100010056
:1002A0000100000001000100010001000100000048
:1002B0003A04010001000100010001003B040100BB
:1002C00001000100010001003C04010001000100E7
:1002D000010001003D0401000100010001000100D6
:1002E0003E040100010001000000010001000100C6
:1002F00000000100000001000100010000000100F9
:10030000000001003F040100AC00010000000100FA
:1003100040040100AA00A8000100010045040100FA
:10032000A90001000100AD0001000100AB000100C7
:100330000100AE0001000100010001000100010008
:100340004204430444044104010000000501090281
:10035000A10185020901A10005091901290515005E
:10036000250195057501810295017503810105013E
:10037000093009311581257F9502750881060938F4
:100380001581257F950175088106050C0A3802152F
:1003900081257F950175088106C0C005010980A1EE
:1003A0000185031A81002A830016010026030095A7
:1003B0000175108100C0050C0901A10185041A0115
:1003C000002A9C02160100269C02950175108100EE
:1003D000C005010906A1018505050719E029E715F2
:1003E0000025019508750181020507190029EF15FF
:1003F00000250195F075018102050819012905956F
:100400000575019102950175039101C00501090669
:10041000A101050719E029E71500250195087501D7
:1004200081029501750881010507190029FF150052
:1004300026FF009506750881000508190129059514
:100440000575019102950175039101C009023B00F8
:10045000020100A0FA0904000001030101000921C2
:10046000110100012240000705810308000A090468
:100470000100010300000009211101000122C00058
:100480000705820320000A1201100100000008ED98
:10049000FE071301000102030104033000000016EF
:1004A000034500720067006F0064006F0078002051
:1004B0000045005A00000008035A005300410000A4
:1004C00000040309040011241FBECFEFDAE0DEBFF1
:1004D000CDBF11E0A0E0B1E0E4E0F8E402C0059097
:1004E0000D92A03CB107D9F725E0A0ECB1E001C026
:1004F0001D92AA3FB207E1F70E94271F0C94D52353
:100500000C940000E8EDF0E080818E7F80831092F3
:10051000E2001092DA001092E100A0EEB0E08C91BF
:1005200081608C9380818F77808319BCA7EDB0E0C8
:100530008C918E7F8C9380818F7E80831092C705F3
:1005400008952091E4003091E50095E6A9012091FD
:10055000EC00822F817020FF06C08091E80080FFB0
:1005600006C080E008952091E80022FD1AC0809125
:10057000EC05882389F0853089F08091EB0085FDBA
:100580000FC02091E4003091E50042175307F9F2C3
:100590009150E1F684E0089582E0089583E00895A3
:1005A00081E00895EF92FF920F931F93CF937C0108
:1005B0008B010E94A102C82F811117C08091E80011
:1005C00085FD0BC08091E8008E778093E8000E9443
:1005D000A102882399F3C82F08C0F70181917F01F8
:1005E0008093F1000150110949F78C2FCF911F9191
:1005F0000F91FF90EF9008958091EE0587FF13C053
:100600008091E80082FF06C08091E8008B7780939C
:10061000E80004C08091EC058111F2CF089580912B
:10062000EC058823D9F38091E80080FFF8CF809112
:10063000E8008E77ECCF982F9093E900242F762F47
:1006400050E0891731F07091EC002091ED0050914D
:10065000F00021FD07C09F5F973071F78093E9009C
:1006600081E008953091EB003E7F3093EB003091B4
:10067000ED003D7F3093ED003091EB003160309321
:10068000EB007093EC002093ED005093F00020916C
:10069000EE0027FDE0CF80E00895CF92DF92EF9249
:1006A000FF920F931F93CF93DF93C8EDD0E0888123
:1006B0008F7E8883E7EDF0E080818160808384E035
:1006C00082BF81E08093C70588818E7F888302EE98
:1006D00010E0F80110821092DA0081EEC82ED12CC1
:1006E000F601108288818F7788838881806888836B
:1006F00088818F7D888319BC1092EC051092ED05DE
:100700001092EB051092EA0590EEE92EF12CF7011C
:1007100080818B7F808388818160888342E060E074
:1007200080E00E941B03F60180818E7F8083F801A8
:10073000808181608083808188608083F7018081EF
:100740008E7F8083888180618883DF91CF911F9124
:100750000F91FF90EF90DF90CF900895FC01809172
:10076000F4059091F50586179707A0F061157105BE
:1007700029F49091E8009E779093E80090E061154D
:10078000710551F4911108C08091E80082FF34C0D6
:1007900080E00895BC01F2CF8091EC058823C1F17F
:1007A0008530C1F18091E80083FD30C08091E80080
:1007B00082FDEACF8091E80080FFE1CF8091F300D5
:1007C0002091F200382F6115710519F0283031059C
:1007D00058F091E02830310509F090E02091E800D0
:1007E0002E772093E800CBCF81918093F100615068
:1007F00071092F5F3F4FE7CF8091EC05882341F0CF
:10080000853041F08091E80083FFBECF81E00895FC
:1008100082E0089583E008958091EC05843011F41E
:1008200082E0089581E008958091C905089590912E
:10083000B005803F41F48091B10587FD1092B1056C
:10084000992371F00895813F29F48091B10518161C
:10085000ACF3F6CF823F81F497FFF2CF1092B00550
:100860008091B1059091B205892B9091B305892BA8
:1008700049F71092B4050895833F19F4191674F3DB
:10088000DFCF893F39F48091B2051816CCF610926B
:10089000B205D6CF8A3F29F48091B20587FFD0CF29
:1008A000F6CF8B3F39F48091B30587FFC9CF109203
:1008B000B305C6CF8C3F29F48091B3051816BCF35D
:1008C000BFCF843F31F48091AF058E7F8093AF0519
:1008D000B7CF853F21F48091AF058D7FF7CF863F5D
:1008E00021F48091AF058B7FF1CF873F21F4809178
:1008F000AF05877FEBCF883F21F48091AF058F7ED6
:10090000E5CF8D3F31F4809182058E7F8093820503
:1009100097CF8E3F21F4809182058D7FF7CF8F3F57
:1009200009F08ECF809182058B7FF0CF8091820578
:1009300080FD16C081FD16C082FD16C08091B405F1
:100940008823A1F0883280F428E0829FC00111241E
:1009500068E270E00E944822862F672B39F00895E4
:1009600082E0089584E0089588E0089581E0089584
:100970008091820580FD04C081FD04C085E008955A
:1009800081E0089582E00895803F31F40E94B80428
:1009900081958093B1050895813F19F40E94B804B0
:1009A000F8CF823F31F40E94B80481958093B0055E
:1009B0000895833F19F40E94B804F8CF893F29F4C1
:1009C0000E9496048093B20508958A3F21F40E9404
:1009D00096048195F7CF8B3F31F40E949604819560
:1009E0008093B30508958C3F19F40E949604F8CFC4
:1009F000843F31F48091AF0581608093AF05089505
:100A0000853F21F48091AF058260F7CF863F21F4C6
:100A10008091AF058460F1CF873F21F48091AF05CD
:100A20008860EBCF883F21F48091AF058061E5CFEE
:100A30008D3F31F480918205816080938205089515
:100A40008E3F21F4809182058260F7CF8F3FB9F706
:100A5000809182058460F1CFCF92DF92EF92FF9276
:100A60000F931F932FB7F89440917E0550917F0507
:100A700060918005709181052FBF6A017B01EE2492
:100A8000FF248C0130E020E0C016D106E206F30618
:100A900050F0481B590BCA011F910F91FF90EF9026
:100AA000DF90CF90089541505109F3CF809179059F
:100AB00081111092790508958091780590917705BC
:100AC000892B90917605892B8093C00190917905AF
:100AD0009923A1F0892B8093C0018091160188236E
:100AE00041F180919B0587FF24C08EE1E2ECF1E0AB
:100AF00090E0815000F591110E945605E0919D050E
:100B0000F0919E053097E1F080911601882359F00D
:100B100080919B0587FF07C08091C0018093C10130
:100B200085E08093C0010280F381E02D80EC91E0AC
:100B3000099486E0DBCF21912223D9F29F5FD9CFA0
:100B40000895909116019923D1F090919B0597FFFC
:100B500016C0E82FE695E695E695EE31E0F4F0E074
:100B6000E054FE4F282F277081E090E001C0880FED
:100B70002A95EAF780959281892382830895E2EC91
:100B8000F1E09191891303C0DF0111971C9291E06C
:100B9000E83CF907B1F70895909116019923C1F047
:100BA00090919B0597FF14C0E82FE695E695E69592
:100BB000EE31F8F4F0E0E054FE4F877021E030E0D1
:100BC00001C0220F8A95EAF78281822B82830895E1
:100BD000A2ECB1E0EFEF90E02D91821751F0EF3FE2
:100BE00019F4211101C0E92F9F5F9630A9F7EF3F5B
:100BF00009F408950E2E000CFF0BE054FE4FE6CFD3
:100C0000E92FEE0FE90FEE0F8E0F982F9770869554
:100C10008695869525E0829FF0011124E65CFA4FC7
:100C200050E040E080E0219130E0092E02C036958E
:100C300027950A94E2F721703327042E01C0220F72
:100C40000A94EAF7822B4F5F5F4F4530510559F701
:100C50000895E92FEE0FE90FEE0F8E0F982F977082
:100C600041E001C0440F9A95EAF7869586958695EE
:100C700095E0899FF0011124E65CFA4F30E020E016
:100C800070E05191DF011197CB01022E02C09695C1
:100C900087950A94E2F781708195852784238527BB
:100CA0008C932F5F3F4F2530310559F70895809180
:100CB000390590910805981301C008958F5F8770DA
:100CC000FACF882341F0809590917705892380930E
:100CD00077050C945C050895882339F09091770589
:100CE000982B909377050C945C050895882341F028
:100CF0008095909178058923809378050C945C0504
:100D00000895882339F090917805982B9093780571
:100D10000C945C0508952091E8013091E9012817B1
:100D2000390771F09093E9018093E801E0919D0506
:100D3000F0919E05309721F00084F185E02D099413
:100D400008952091E6013091E7012817390771F0E5
:100D50009093E7018093E601E0919D05F0919E0557
:100D6000309721F00680F781E02D09940895E091F5
:100D70009D05F0919E05309721F00190F081E02DC6
:100D8000099480E0089590919B0592FF06C0282F5A
:100D900028712830F9F4877F846093FF06C0282FDC
:100DA00028712831F1F4877E846120919C0520FF11
:100DB00006C0382F38713830D9F4877F816021FF21
:100DC00006C0282F28712831D1F4877E816194FDD7
:100DD000877E0895282F24712430F9F68B7F886050
:100DE000DCCF282F2471243101F78B7E8861DDCF81
:100DF000382F3171313019F78E7F8860E0CF282F7E
:100E00002171213121F78E7E8861E1CFCF93DF936D
:100E1000972F70E026E0929F600D711D1124FB0159
:100E200034E5839FE00DF11D1124EE0FFF1FE45503
:100E3000FF4FC591D491CE01C238D105B9F1E8F583
:100E4000C133D10509F499C050F5C932D10509F46F
:100E50008DC0CA32D10509F497C0C11542E5D40747
:100E600008F047C1C11521E5D20708F0C2C1C83E4C
:100E7000D10508F020C1C03ED10568F5C83AD105BA
:100E800008F089C0C53AD10508F088C1C130D10544
:100E900011F1209709F443C02497E8F440C0C5330A
:100EA000D10509F45CC0C933D105B9F620919B0581
:100EB000237089F080EE90E00EC0C33ED10591F121
:100EC00068F4C03ED105F9F0C23ED10531F620915B
:100ED0009B0522FD20C0DF91CF910895C63ED1052C
:100EE00061F1C73ED10581F1C43ED10509F0B5CF0E
:100EF00020919C0521FFEFCF80919B0584FD0FC0C1
:100F000087EE90E0E8CF20919B0520FDA3C13091B2
:100F10009C0530FFE0CF83EE90E024FFDCCF90E033
:100F200080E0D9CF20919B0522FD97C130919C058F
:100F300030FDC0CF24FFCFCFF2CF20919B0523FF00
:100F4000CACF24FDECCFDCCF20919B0523FD88C1C7
:100F500030919C0531FFEECF84EE90E0BCCF209124
:100F60009B0525FFB8CF89E290E0B5CF20919B0586
:100F700025FFB1CF85E390E0AECF20919B0526FF02
:100F8000AACF8AE290E0A7CF20919B0526FFA3CFAE
:100F900081E390E0A0CFCF3BD10508F682EE94E448
:100FA000C83AD10509F497CF89EE94E4C93AD1053E
:100FB00009F491CF8AEE94E4CA3AD10509F48BCFB3
:100FC00085EB94E4CB3AD10509F485CF86EB94E424
:100FD000CC3AD10509F47FCF83EB94E4CB3BD10528
:100FE00009F479CF84EB94E4CC3BD10509F473CFB9
:100FF00087EB94E4CD3AD10509F46DCF8CEC94E401
:10100000C03BD10509F467CF8DEC94E4CE3AD1050D
:1010100009F461CF83E895E4CF3AD10509F45BCFB9
:101020008AE895E4C13BD10509F455CF82E995E4FE
:10103000C23BD10509F44FCF84E995E4C33BD10508
:1010400009F449CF81E296E4C43BD10509F443CFCA
:1010500083E296E4C53BD10509F43DCF84E296E4F2
:10106000C63BD10509F437CF85E296E4C73BD105ED
:1010700009F431CF86E296E4C83BD10509F42BCFC1
:1010800087E296E4C93BD10509F425CF8FE694E4C5
:10109000CD3BD10509F41FCF80E794E4CE3BD105C9
:1010A00009F419CF80E094E4CA3BD10509F013CFCD
:1010B0008AE296E410CFC11530E2D30760F4C1157F
:1010C00041E0D40708F007CFCE019065C03FD105BD
:1010D00008F001CF24CFC11580E4D80708F41FCF52
:1010E000C11590E5D90708F068C0CE019F70906ADD
:1010F000F2CEC11526E5D20718F5C11535E5D3079F
:1011000008F08DC0C11544E5D40708F083C09C2FBA
:1011100096959695AE0143705527C115D34508F4B1
:101120006DC021E030E002C0220F331F4A95E2F784
:1011300040E2949FC0011124822B932B9A68CBCE5E
:10114000C1159AE5D90778F4C11529E5D20708F049
:1011500070C0C11538E5D30708F4E1CE9C2F88276D
:10116000806F906AB8CEC1154BE5D40708F4D7CE8E
:10117000C1158CE5D80708F469C0CE0190568115D9
:10118000904208F0CCCE8D2F8F710E94C30690E064
:10119000982F882788279F718C2B49C081E890E47D
:1011A000C53AD10509F497CE82E890E4C63AD10554
:1011B00009F491CE83E890E48ECE9E01E4E036956A
:1011C0002795EA95E1F723708C2F86958695837095
:1011D00030E2839FC0011124922BC37021E030E0E4
:1011E00002C0220F331FCA95E2F7822B932B9C6813
:1011F00072CE9C2F8827816F906A6DCE21E030E0FF
:1012000002C0220F331F4A95E2F740E2949FC001CB
:101210001124EBCF9C2F8827846F906A5CCE8C2F93
:101220000E94C30690E0982F882788279F719062BC
:1012300052CE8C2F8F700E94C30634E0D695C7958E
:101240003A95E1F7CF709C2F906945CECE01992752
:10125000906641CE89E390E03ECE82EE90E03BCEB8
:1012600086EE90E038CEBF92CF92DF92EF92FF925F
:101270000F931F93CF93DF938C01C0907105D09093
:101280007205E0907305F090740580917A05909155
:101290007B05A0917C05B0917D05C82AD92AEA2A50
:1012A000FB2ACFE1D0E0BC2ED701C6010C2E04C032
:1012B000B695A795979587950A94D2F780FD0EC0AD
:1012C000219788F7B12C8B2DDF91CF911F910F9132
:1012D000FF90EF90DF90CF90BF900895B8018C2FD2
:1012E0000E940607019761F3EECFCF93DF93EC01E5
:1012F0000E943309BE01DF91CF910C9406070E9432
:101300007509292F2F7092959F7092509E3078F416
:10131000E92FF0E0E952FC4D0C945C22803F19F07B
:1013200020F4883E20F481E00895843FE1F380E0DA
:101330000895883EC0F3813FD1F7F5CF822F86957F
:1013400086958695089527982F98089526982E9823
:10135000089525982D98089556985E980895279A8F
:101360002F9A0895269A2E9A0895259A2D9A0895CF
:10137000CF92DF92EF92FF92CF936B017C01C70176
:10138000AA27BB27C0E10097A105B10519F4D70131
:10139000CB01C0E0492F5A2F6B2F772741155105FC
:1013A0006105710519F0C85FDB01CA01AC01BD011F
:1013B000E4E07695679557954795EA95D1F74115FD
:1013C00051056105710519F0CC5FDB01CA01AC0163
:1013D000BD0132E076956795579547953A95D1F7D7
:1013E000411551056105710519F0CE5FDB01CA0198
:1013F000B695A79597958795892B8A2B8B2B09F006
:10140000CF5F0E94AC090E94A9090E94A6090E9410
:10141000A309C150C73040F4EC2FF0E0EB51FC4D74
:101420000C945C220E94B509C701B601CF91FF90D0
:10143000EF90DF90CF9008950E94B5090E94B20905
:10144000F3CF0E94B5090E94AF09EECF0E94B50903
:101450000E94B209F8CF84B1807F84B985B1807FC2
:1014600085B98AB1837F8AB98BB1837F8BB93E9866
:101470004698089580B38C7080BB81B3836F81BB25
:101480000895CF9384E090E00E946222C82F81E209
:1014900090E00E946222982F8C2FCF9108950F9395
:1014A0001F93CF93DF9300D00F92CDB7DEB78C019F
:1014B0000E940C04823011F0843021F584E089838D
:1014C0001B830A8382E08093E9008FEF9091E8000C
:1014D000815095FD06C095ED9A95F1F700008111B8
:1014E000F5CF8091E80085FF0DC050E040E063E05B
:1014F00070E0CE0101960E94D2028091E8008E77C2
:101500008093E8000F900F900F90DF91CF911F9183
:101510000F910895CF93DF9300D00F92CDB7DEB730
:101520002091EC05243031F523E02983805891097E
:101530009B838A8382E08093E9008FEF9091E8009B
:10154000815095FD06C095ED9A95F1F70000811147
:10155000F5CF8091E80085FF0DC050E040E063E0EA
:1015600070E0CE0101960E94D2028091E8008E7751
:101570008093E8000F900F900F90DF91CF91089526
:10158000CF93DF93EC010E940C04823011F0843081
:10159000F9F482E08093E9008FEF9091E8008150A8
:1015A00095FD06C095ED9A95F1F700008111F5CFF4
:1015B0008091E80085FF0CC050E040E066E070E0FC
:1015C000CE010E94D2028091E8008E778093E800DD
:1015D000DF91CF910895CF93DF93EC010E940C042B
:1015E000823011F08430B9F5809116018823B1F171
:1015F00080919B0587FF32C060E282E08093E90022
:101600008FEF9091E800815095FD06C095ED9A9579
:10161000F1F700008111F5CF8091E80085FF1BC034
:101620008091160170E050E040E0811104C050E06C
:1016300040E068E070E0CE010E94D2028091E800B4
:101640008E778093E80080E2FE01AAECB5E001907D
:101650000D928A95E1F7DF91CF91089568E081E0DE
:10166000CDCFEF92FF920F931F93CF93DF930E9402
:10167000AC090E94A9090E94A6090E94A30988E852
:10168000E82EF12C8FEF90E0F701918380830AE838
:1016900010E0F80191838083CCE8D0E099838883BF
:1016A0000E94B509FFEF20E782E0F1502040804022
:1016B000E1F700C000000E94B2099FEFE0E7F2E00E
:1016C0009150E040F040E1F700C000000E94AF09F7
:1016D0002FEF80E792E0215080409040E1F700C07A
:1016E00000000E94A909EFEFF0E722E0E150F0408E
:1016F0002040E1F700C000000E94A6098FEF90E7AC
:10170000E2E081509040E040E1F700C000000E941C
:10171000A309809189058770FFEF8F9FC001112475
:1017200095958795959587959927F701918380835E
:10173000F80191838083998388830E94AC090E9479
:10174000A9090E94A609DF91CF911F910F91FF90E7
:10175000EF900C94A309609185058CE090E00C94C7
:1017600076226FEE7EEF90E080E00E94942260E0AF
:1017700082E090E00E94762260E083E090E00E94A8
:10178000762210927A0510927B0510927C051092B9
:101790007D0560E084E090E00E94762260E081E2D6
:1017A00090E00E94762260E085E090E00E94762240
:1017B00060E086E090E00E9476226FEF87E090E0A4
:1017C0000E94762240E050E0BA0188E090E00E945A
:1017D000882260E08DE090E00E94762240E050E0B8
:1017E000BA0188E190E00E94882260E087E190E001
:1017F0000E94762240E050E0BA018CE190E00E9425
:10180000882260E080E290E00E94762210928905B2
:1018100010928A0510928B0510928C0584E08061ED
:10182000809389054091890550918A0560918B05C7
:1018300070918C058FE090E00E94882240E050E09B
:10184000BA0183E190E00C948822CF93C82F8730AF
:1018500070F580910A0190910B01892B89F564E65E
:1018600070E080E40E94812190930B0180930A0133
:10187000892BD1F464E670E082E10E94DD2190932F
:101880000B0180930A01892B79F481E090E001C07B
:10189000880FCA95EAF764E670E080950E94DD2122
:1018A00090930B0180930A01CF910C9430228A30DF
:1018B000B9F040F4883071F0893079F0209A289896
:1018C000CF9108958C3091F070F08D30B9F73E9A39
:1018D0004698F6CF219A2998F3CF229A2A98F0CFEA
:1018E000239A2B98EDCF529A5A98EACF539A5B9845
:1018F000E7CF80E290E090930B0180930A01809102
:10190000E30181110EC00E947B2181E08093E301FD
:101910002FEF83ED90E3215080409040E1F700C02D
:10192000000064E670E080E40E94812190930B0146
:1019300080930A01892B09F04EC064E670E080E0D4
:101940000E94DD2190930B0180930A01892B09F0FD
:1019500042C064E670E080E00E94DD2190930B01BC
:1019600080930A01892BB9F564E670E08FE30E9449
:10197000DD2190930B0180930A01892B61F50E9470
:10198000302264E670E080E40E94812190930B0194
:1019900080930A01892BF9F464E670E08CE00E94E0
:1019A000DD2190930B0180930A01892BA1F464E659
:1019B00070E080E00E94DD2190930B0180930A018A
:1019C000892B49F464E670E08FE30E94DD21909357
:1019D0000B0180930A010E94302280910A01089530
:1019E000CF93873008F040C080910A0190910B019D
:1019F000C0E0892B71F464E670E080E40E948121EC
:101A000090930B0180930A01892B31F0C0E00E9472
:101A100030228C2FCF91089564E670E083E10E941C
:101A2000DD2190930B0180930A01892B79F764E6FD
:101A300070E081E40E94812190930B0180930A0160
:101A4000892B21F784E690E00E940C2297FF05C0C5
:101A500090930B0180930A01D9CFC82FC0951092A3
:101A60000B0110920A01D3CFCFB18FB18695869525
:101A70008C73C3708C2BC82FC095CBCF78941F92DA
:101A80001FB61F9211248F939F93AF93BF938091A2
:101A90007E0590917F05A0918005B091810501960A
:101AA000A11DB11D80937E0590937F05A0938005B5
:101AB000B0938105BF91AF919F918F911F901FBEF1
:101AC0001F9018952FB7F89480917E0590917F050F
:101AD000A0918005B09181052FBF0895E0919D05EB
:101AE000F0919E05309749F082E08093AE05048026
:101AF000F581E02D8EEA95E009950E94620D9093A4
:101B0000B6058093B5050895109277051092760575
:101B10000E945C0586E0EEEAF5E0DF011D928A9501
:101B2000E9F71092B405109282050E946E0D90E0C4
:101B300080E00E94A10690E080E00C948B060E9459
:101B4000B809609371057093720580937305909343
:101B500074050C94840D0F931F9341E050E060E0F6
:101B600070E004C0440F551F661F771F8A95D2F797
:101B7000CB01BA01609570958095909500917105A3
:101B800010917205209173053091740560237123C3
:101B9000822393231F910F910C949F0D90917505B3
:101BA0008095892380937505282F277071F4282F3D
:101BB000082E000C330B9217130639F08595859586
:101BC00085950E94AB0D1092750508950F931F9394
:101BD00041E050E060E070E004C0440F551F661F14
:101BE000771F8A95D2F78091710590917205A09127
:101BF0007305B09174058A019B01082B192B2A2BC0
:101C00003B2BC901B8011F910F910C949F0D60E00F
:101C100070E0CB010C949F0D60937A0570937B0567
:101C200080937C0590937D050C94840D109278052B
:101C300080911601E2ECF1E0882359F080919B0538
:101C400087FF07C08EE1DF011D928A95E9F70C94AA
:101C5000840D86E0F8CF1F93CF93DF93CDB7DEB727
:101C6000AA970FB6F894DEBF0FBECDBF8EEE95E0FB
:101C70002091F100FC012193CF01F5E0863F9F0701
:101C8000B9F78091EF05833009F46FC0B8F4813063
:101C900009F446C0823009F4B0C08091E80083FFA7
:101CA00087C28091EE059091EF059A3008F080C2CE
:101CB000E92FF0E0E451FC4D0C945C228A3009F4E9
:101CC0008BC08B3009F46EC0893039F78091EE05F6
:101CD000813219F78091F2059091F3050297E8F6A9
:101CE0008091E800877F8093E8008091E80082FF80
:101CF00037C09091F3008091F200029729F480910F
:101D0000F1008B7F813021F48091F1008093C9052F
:101D10008091E8008B778093E8000E94FC02BDCFA1
:101D20008091EE05813A09F0B8CF8091E800877F75
:101D30008093E8008091F2059091F305892B61F47E
:101D400060E28AEC95E070E00E94AE038091E800CA
:101D50008B778093E800A1CF60E090E080E0F3CF44
:101D60008091EC058111C1CF98CF8091EE05813A29
:101D700009F093CF8091F2059091F305892B09F03A
:101D80008CCF8091E800877F8093E8008091E80005
:101D900080FFFCCF809116018093F1008091E800D4
:101DA0008E77B9CF8091EE05813209F076CF8091A0
:101DB000F2059091F305892B09F06FCF8091E8002F
:101DC000877F8093E8000E94FC028091F005809359
:101DD00016010E94160E61CF8091EE05813209F046
:101DE0005CCF8091E800877F8093E8000E94FC022E
:101DF0008091F1058093C80550CF8091EE05813A1E
:101E000009F04BCF8091E800877F8093E8008091B4
:101E1000E80080FFFCCF8091C805BECF803899F0E4
:101E2000823809F0C5C18091F2058F70873008F0C3
:101E3000BFC18093E9008091EB0085FB882780F982
:101E40001092E90006C08091EA059091EB0591118E
:101E500082609091E800977F9093E8008093F10072
:101E60001092F1008091E8008E779EC1882309F4DA
:101E70008CC1823009F09CC18091F00581118FC125
:101E80008091F2058F702FEF280F263008F090C157
:101E90008093E9002091EB0020FF81C1933031F461
:101EA0008091EB0080628093EB0079C19091EB0010
:101EB00090619093EB0021E030E001C0220F8A9501
:101EC000EAF72093EA001092EA008091EB00886024
:101ED000EACF81116DC11091F0051F778091E30069
:101EE0008078812B8093E3008091E800877F809346
:101EF000E8000E94FC028091E80080FFFCCF809106
:101F0000E30080688093E30082E0111183E0809316
:101F1000EC054EC18058823008F04AC18091F0052E
:101F20009091F1058C3D23E09207A1F583E08A832F
:101F30008AE289834FB7F894DE01139620E03EE0F1
:101F400051E2E32FF0E050935700E49120FF03C0EB
:101F5000E295EF703F5FEF708E2F90E0EA30C0F0B7
:101F6000C7968D939D932F5F243159F74FBF809172
:101F7000E800877F8093E8006AE270E0CE01019676
:101F80000E94AE038091E8008B778093E80010C137
:101F9000C096E7CF4091F2055091F305292F3327E2
:101FA0002330310509F445C078F52130310509F4B5
:101FB0007BC08BE390E0ECE4F4E02230310509F0E3
:101FC000F7C02091E800277F2093E8002091F405D6
:101FD0003091F5058217930708F49C0140E0211524
:101FE000310509F070C041116EC08091E80082FD9A
:101FF000C9CF8091EC05882329F2853019F28091B0
:10200000E80083FFF2CFBECF2132310509F440C092
:102010002232310509F0CCC04115510509F44EC0FA
:102020004130510509F0C4C080EC90E0ECE4F3E0ED
:10203000C8CF992781309105D9F0009771F082308F
:102040009105F1F0039709F0B3C0E9E9F4E0E491F8
:102050008E2F90E0E9E9F4E007C0E1ECF4E0E491D0
:102060008E2F90E0E1ECF4E0009709F4A1C0A9CF35
:10207000E7EBF4E0E4918E2F90E0E7EBF4E0F4CFAF
:10208000EFE9F4E0E4918E2F90E0EFE9F4E0ECCF9B
:102090004115510571F04130510509F089C089E0C1
:1020A00090E0E7E7F4E08DCF82E190E0E7E8F4E04C
:1020B00088CF89E090E0EEE5F4E083CF80E490E023
:1020C000ECE0F4E07ECF8091EC05882309F45ACF50
:1020D000853009F457CF8091E80083FD53CF80917C
:1020E000E80082FD82CF8091E80080FF78CF909158
:1020F000F3008091F2002115310519F08830910527
:1021000050F041E0089709F040E08091E8008E77B8
:102110008093E80064CF44914093F10031962150C0
:1021200031090196E8CF803809F042C08091E8007B
:10213000877F8093E8008091ED058093F10092CE37
:10214000811136C01091F005123090F58091E800B1
:10215000877F8093E8001093ED050E94FC02112315
:1021600011F084E005C08091E30087FDFACF81E0A3
:102170008093EC0542E061EC81E00E941B0342E2A7
:1021800061EC82E00E941B0313C08091F005813056
:1021900079F481E0933009F080E08093EB051092B0
:1021A000E9008091E800877F8093E8000E94FC02AC
:1021B0008091E80083FF0AC08091E800877F8093C8
:1021C000E8008091EB0080628093EB00AA960FB646
:1021D000F894DEBF0FBECDBFDF91CF911F91089560
:1021E0001F920F920FB60F9211242F933F934F938C
:1021F0005F936F937F938F939F93AF93BF93CF938F
:10220000DF93EF93FF93D091E900DF708091EC00B2
:10221000C82FC17080FDC0E81092E9008091F000E5
:10222000877F8093F00078940E942B0E1092E90033
:102230008091F00088608093F000CD2BCF70C09328
:10224000E900FF91EF91DF91CF91BF91AF919F9105
:102250008F917F916F915F914F913F912F910F904F
:102260000FBE0F901F9018951F920F920FB60F92EE
:1022700011242F933F934F935F936F937F938F938B
:102280009F93AF93BF93EF93FF938091E10082FF01
:1022900009C08091E20082FF05C08091E1008B7F40
:1022A0008093E1008091DA0080FF24C08091D80003
:1022B00080FF20C08091DA008E7F8093DA008091C9
:1022C000D90080FF9FC080E189BD82E189BD09B44A
:1022D00000FEFDCF81E08093EC058091C705811160
:1022E00009C00E9482020E944D038091E200846036
:1022F0008093E2008091E10080FF17C08091E200AE
:1023000080FF13C08091E2008E7F8093E200809175
:10231000E20080618093E2008091D8008062809327
:10232000D80019BC85E08093EC058091E10084FF22
:102330002DC08091E20084FF29C080E189BD82E147
:1023400089BD89B5982F917080FFFBCF8091D8000F
:102350008F7D8093D8008091E1008F7E8093E10093
:102360008091E2008F7E8093E2008091E2008160A4
:102370008093E2008091ED05882309F449C084E050
:102380008093EC050E94160E0E94B7068091E10032
:1023900083FF27C08091E20083FF23C08091E1008A
:1023A000877F8093E10082E08093EC051092ED0539
:1023B0008091E1008E7F8093E1008091E2008E7F2A
:1023C0008093E2008091E20080618093E20042E02D
:1023D00060E080E00E941B038091F00088608093A1
:1023E000F000FF91EF91BF91AF919F918F917F91FD
:1023F0006F915F914F913F912F910F900FBE0F9072
:102400001F90189519BC1092EC051092C70572CF59
:102410008091E30087FD93E09093EC05B3CF882390
:1024200009F459C0823871F40E94B70681FF53C085
:1024300089E30E94CC050E945C0589E30E94A10506
:102440000C945C05833859F40E94B70680FF43C0A2
:1024500083E50E94CC050E945C0583E5EFCF8438BC
:1024600059F40E94B70682FF36C087E40E94CC056B
:102470000E945C0587E4E2CF9CEF980F913AF0F25E
:1024800090E2980F983088F4877021E030E0A9013D
:1024900002C0440F551F8A95E2F7CA0180959091BA
:1024A0007805892380937805CBCF9BE5980F9330EF
:1024B00020F490E080E00C94A10698E5980F973105
:1024C00020F490E080E00C948B06803F20F00E9486
:1024D00017040C946E0D0895882309F408C18238FE
:1024E000B9F40E94B70681FD02C189E30E94CC05C0
:1024F0000E945C052FEF81EE94E0215080409040D7
:10250000E1F700C0000089E30E94A1050C945C057E
:102510008338A1F40E94B70680FDE9C083E50E94DC
:10252000CC050E945C052FEF81EE94E021508040A5
:102530009040E1F700C0000083E5E6CF8438A1F4C5
:102540000E94B70682FDD3C087E40E94CC050E949A
:102550005C052FEF81EE94E0215080409040E1F740
:1025600000C0000087E4D0CF9CEF980F913A18F498
:102570000E94CC05CBCF90E2980F983068F487701A
:1025800021E030E001C0220F8A95EAF780917805BA
:10259000822B80937805BACF9BE5980F933070F427
:1025A000853A31F0863A39F083E890E00C94A10640
:1025B00081E890E0FBCF82E890E0F8CF98E5980FB3
:1025C000973108F08EC0883A09F446C0893A09F478
:1025D00046C08A3A09F446C08B3A09F446C08C3AA0
:1025E00009F446C08B3B09F446C08C3B09F446C055
:1025F0008D3A09F446C0803B09F446C08E3A09F48E
:1026000046C08F3A09F446C0813B09F446C0823B7C
:1026100009F446C0833B09F446C0843B09F446C034
:10262000853B09F446C0863B09F446C0873B09F464
:1026300046C0883B09F446C0893B09F446C08D3B3F
:1026400009F446C08E3B09F446C08A3B09F446C0F3
:1026500090E080E00C948B0682EE90E0FBCF89EE58
:1026600090E0F8CF8AEE90E0F5CF85EB90E0F2CFE6
:1026700086EB90E0EFCF83EB90E0ECCF84EB90E043
:10268000E9CF87EB90E0E6CF8CEC90E0E3CF8DECE8
:1026900090E0E0CF83E891E0DDCF8AE891E0DACF07
:1026A00082E991E0D7CF84E991E0D4CF81E292E052
:1026B000D1CF83E292E0CECF84E292E0CBCF85E22D
:1026C00092E0C8CF86E292E0C5CF87E292E0C2CF27
:1026D0008FE690E0BFCF80E790E0BCCF8AE292E047
:1026E000B9CF803F20F00E94C4040C946E0D089571
:1026F000CF93C82F0E946C12C93349F42FEF87EE95
:1027000093E0215080409040E1F700C000008C2F02
:10271000CF910C940F120F931F93CF93DF93C62F7B
:10272000D42F022FFC0182818823A1F06093FC0446
:102730000E94620D9093E5018093E401C77081E0EF
:1027400001C0880FCA95EAF7DF91CF911F910F91D1
:102750000C9481061091FC04161335C08091E4019D
:102760009091E5010E942C05883C910560F5C0E23E
:10277000CD0F1D17B9F080E2810F883040F417703B
:1027800081E001C0880F1A95EAF70E947606C830EA
:1027900048F481E09D2F977001C0880F9A95EAF761
:1027A0000E948106802F0E947813C83098F4D77059
:1027B00081E001C0880FDA95EAF7DF91CF911F9190
:1027C0000F910C947606C77081E001C0880FCA95FE
:1027D000EAF7F3CFDF91CF911F910F9108954F92B8
:1027E0005F926F927F928F929F92AF92BF92CF92A1
:1027F000DF92EF92FF920F931F93CF93DF9300D05E
:1028000000D00F92CDB7DEB76C01FC0183819481BB
:10281000892B39F01081F180812F8F218F3F09F0B2
:102820004DC70F900F900F900F900F90DF91CF91A9
:102830001F910F91FF90EF90DF90CF90BF90AF90DE
:102840009F908F907F906F905F904F9008950E941F
:102850003309082F682F89819A810E942906E12F68
:10286000F0E026E0F29EE00DF11D112434E5039F17
:10287000E00DF11D1124EE0FFF1FE455FF4F0591F0
:1028800014918091FA04F601928181117CC1911119
:1028900026C70430FDE51F0709F443C108F00FC146
:1028A00003303DE5130709F42EC10930EDE51E079D
:1028B000F1F5F6018281882309F44EC080918905E3
:1028C00091E0980F9770887F953008F4892B80935A
:1028D0008905809189058770FFEF8F9FC0011124C2
:1028E00095958795959587959927909389008093DD
:1028F000880090938B0080938A0090938D00809342
:102900008C004091890550918A0560918B057091EA
:102910008C058FE090E00E94882260917105709193
:10292000720580917305909174050E94B809F601B3
:102930008281882389F0033EFCE51F0709F4B8C1B2
:1029400008F0A2C1013E3CE5130709F4AAC1023E0A
:102950008CE5180709F4AAC117FFD7C1F6018281D7
:10296000882309F44DC0809178058093FB04109270
:10297000780580918505813009F4A2C1882309F486
:102980009BC1823009F4A9C1843009F4ADC18FE341
:102990009CE90197F1F700C000005801E894B7F8EE
:1029A0004CE0E42EF12C95010E2C02C036952795B3
:1029B0000A94E2F72F7087E290E031F0822F90E0E6
:1029C0002A3008F096C14D960E94781394E0E91AD7
:1029D000F108ECEFEE16EFEFFE0629F78091850582
:1029E000813009F48CC1882309F485C1823009F44F
:1029F00082C1843009F487C18091FB0480937805FB
:102A0000F6018281882309F4B2C21092FC040230DC
:102A1000FCE51F0708F4A1C206312CE5120738F0C7
:102A200098012A5F3C452730310508F096C20E9484
:102A3000410A90939C0580939B050F303CE513075A
:102A400009F46CC208F0E6C108309CE5190709F4E6
:102A50004FC208F0BBC10430FCE51F0709F43CC2BB
:102A600008F0A1C102303CE5130709F42DC2033080
:102A70001C4509F42DC260919B0510919C0584E0D2
:102A800090E00E947622612F81E290E00E947622FF
:102A90000F900F900F900F900F90DF91CF911F919B
:102AA0000F91FF90EF90DF90CF90BF90AF909F90ED
:102AB0008F907F906F905F904F900C94160E063021
:102AC0008DE51807D1F107309DE5190709F0EDCE26
:102AD000A0900601B0900701C0907105D0907205DA
:102AE000E0907305F09074050E94160E0E94070E88
:102AF00002EF14E0A016B106A9F1C8010E94EF137D
:102B000006501109F7CF0E94160E0E94070E88EF9B
:102B100091E09093F9048093F80481E08093FA04A3
:102B200080CE0E94160E0E94070E82EF94E09093D2
:102B3000F9048093F80482E0F1CFA0900801B090EE
:102B40000901C0907105D0907205E0907305F09076
:102B500074050E94160E0E94070E08EF11E0A016E1
:102B6000B10659F40E94160EC0927105D0927205FA
:102B7000E0927305F092740554CEC8010E94EF13E1
:102B80000A5F1F4FECCF0530EDE51E0791F5992345
:102B900009F447CE813029F08230B9F01092FA045E
:102BA00040CE8091F8049091F904F1E0883F9F07AE
:102BB00029F0FC0136972281211105C0909309016B
:102BC00080930801EBCFCF01F0CF8091F804909172
:102BD000F90424E0823F920729F0FC013696228115
:102BE000211105C09093070180930601D7CFCF0133
:102BF000F0CF813021F1823009F057CE20910801C9
:102C000030910901A091F804B091F904911105C027
:102C100094E0A23FB90709F468C5CD0106962817CC
:102C2000390709F442CE86E0F60101900D928A95AB
:102C3000E1F78091F8049091F904069720C0209163
:102C4000060130910701A091F804B091F9049111A7
:102C500005C081E0A83FB80709F47ECECD010697F4
:102C60002817390709F421CE86E0F60101900D926C
:102C70008A95E1F78091F8049091F9040696909373
:102C8000F9048093F80411CE043E9CE5190791F0F5
:102C900084E0053EECE51E0709F05ECE80938505D5
:102CA00002C0109285050E94AB0B56CE81E0F6CF94
:102CB00082E0F4CF83E0F2CF82EE0E946C1267CE06
:102CC00083E00E946C0688E10E946C1288E10E94F9
:102CD0000F1283E00E9461065ACE82EE0E946C12AF
:102CE00087E50E94781353CE86EE0E94781388E120
:102CF000F8CF069769CE82EE0E940F127DCE8CE24D
:102D00000E94781379CE88E2FBCF033FFCE51F07D2
:102D1000D9F140F5083D3CE5130791F1093D8CE5FB
:102D20001807F1F1073D9CE5190709F069CE26E285
:102D300041EE61EEC6010F900F900F900F900F9033
:102D4000DF91CF911F910F91FF90EF90DF90CF9087
:102D5000BF90AF909F908F907F906F905F904F90BB
:102D60000C948B13053FECE51E07B1F088F0063F8D
:102D70002CE5120709F044CE27E245EE66EEDACFE5
:102D800027E245EE65EED6CF26E241EE60EED2CFE9
:102D900027E245EE64EECECF26E241EE62EECACFE8
:102DA00028E241E0EFCF80919B05806106309CE5F1
:102DB000190709F447C080919B05886007301C45BE
:102DC00008F440C080919B0580623CC00B30FCE55C
:102DD0001F0709F49BC068F409303CE5130709F4A8
:102DE0008BC00A301C4509F046CE80919B058C6053
:102DF00029C080919B058B7F0D309CE5190711F14F
:102E000080919B058D7F0E301C45E0F080919B05E5
:102E1000877F18C00A3FFCE51F0709F461C060F511
:102E200002313CE5130709F481C078F400319CE5D8
:102E3000190709F477C080919B058F7B01311C45F0
:102E400009F019CE80939B0516CE0431FCE51F07CF
:102E500009F47AC008F470C005311C4509F00BCEA6
:102E600080919B0582FB992790F921E0922790FBA6
:102E700082F990FB83F9E6CF0D3F8CE5180709F442
:102E800049C070F40B3FECE51E0771F180919C0581
:102E90008E7F0C3F1C4509F0EECD80939C05EBCD59
:102EA0000F3F2CE5120709F44BC060F101151D45D9
:102EB00009F0E1CD80919C05982F909591708E7FBF
:102EC000892B90FB81F9E9CF80919B058160BACF76
:102ED00080919B058260B6CF80919B058460B2CFC4
:102EE00080919C058160D9CF80919C058260D5CF6F
:102EF00080919B058064A6CF0E94160E80919B0551
:102F00008068A0CF80919C058360C7CF80919B058E
:102F10008E7F98CF80919C058D7FBFCF80919B0540
:102F20008F7E90CF80919B058F7D8CCF0E94160E57
:102F300080919B058F7786CF80919B05837F82CF81
:102F400080919C058C7FA9CF0E94160E90919B05C5
:102F5000892F97FB87F9805875CF01159CE51907D4
:102F600009F448C00E3DECE51E0709F480C00631A7
:102F70001C4509F493C0F60100811181882309F4EE
:102F8000BFC0C8010E943309F82E682FC8010E94F3
:102F90002906B8018F2D0E9406078C01B82EF60174
:102FA000E580E2943FE0E322F280F1101092770591
:102FB00080917505877079F0FF2069F080E2800FBD
:102FC000883048F082E00E94CE0D809175058770B0
:102FD000AA24A3948111A12C912E92942FE09222E5
:102FE000FBE0F91508F4C6C0E92DF0E0EA50FC4D0D
:102FF0000C945C220E94160EFFEF24E33CE0F1509B
:1030000020403040E1F700C00000F89481E0809358
:10301000E00080E28093D8001092C9008FE19EE426
:103020000197F1F700C000001DBA109268001CBCA7
:1030300010BE1FBA10927A0010926E0010926F00AC
:1030400010927100109272001092C9001092BC0090
:1030500014B817B81AB81DB810BA1092BC0015B839
:1030600018B81BB81EB811BA0C94003FDACB0F90F9
:103070000F900F900F900F90DF91CF911F910F91B4
:10308000FF90EF90DF90CF90BF90AF909F908F9088
:103090007F906F905F904F900C94B10B882331F12B
:1030A000809178058A7A91E009F490E09093FD048C
:1030B00081111AC089E20E94CC050F900F900F90E9
:1030C0000F900F90DF91CF911F910F91FF90EF9094
:1030D000DF90CF90BF90AF909F908F907F906F9038
:1030E0005F904F900C945C0585E3E5CF8091FD04E3
:1030F000811104C089E20E94A105DFCF85E3FBCFE7
:10310000C8010E940006F82E44CF212F2F70E22E16
:10311000107F19F0E29490EFE922FF20C9F0EE2031
:1031200069F080E2800F883010F0B1100BC0809100
:103130007805E82AE09278050E945C05802F0E94BD
:103140006C1218C080917705E82AE0927705F4CFD9
:10315000802F0E940F12EE2069F0E094005E08308C
:1031600010F0B1103CC080917805E822E09278051B
:103170000E945C05292D2850330B2430310510F4B2
:103180000E94B706AA2009F44CCB8091750580FDFA
:1031900048CBF60112828595859585950E94E60DAE
:1031A000C6010E94EF1380917505859585958595DB
:1031B0000F900F900F900F900F90DF91CF911F9174
:1031C0000F91FF90EF90DF90CF90BF90AF909F90C6
:1031D0008F907F906F905F904F900C94AB0D80918B
:1031E0007705E822E0927705C3CF312F3F70832E19
:1031F000107F103219F0829480EF8822802FBB203C
:1032000041F091E0B91631F1FF2079F1EE2041F162
:1032100095CFFF2091F090917905892F8829E110B1
:1032200003C00E948106A6CFE1E0EE12FACF981704
:1032300009F4A0CF809379059DCFE11006C00E94CC
:103240005605882D0E94760695CFF1E0EF1609F419
:1032500091CFF5CFFF2031F021E02E1508F48ACF71
:10326000882DDFCFE11086CFECCFEE2051F38933EC
:1032700049F43FEF87EE93E0315080409040E1F712
:1032800000C00000802F0E940F1274CF812F8695FE
:103290008695837061F0813009F06CCFC80193701E
:1032A000F11002C090E080E00E948B0663CFC8015D
:1032B0009370F11002C090E080E00E94A1065ACF06
:1032C000FF2009F1053F99F0063FB9F0043F49F4AA
:1032D0008091FE049091FF0481609093FF0480939D
:1032E000FE04802F0E94C4040E946E0D43CF809183
:1032F000FE049091FF048260F0CF8091FE049091D3
:10330000FF048460EACF053F89F0063FA9F0043F3F
:1033100049F48091FE049091FF048E7F9093FF0406
:103320008093FE04802F0E941704DECF8091FE045C
:103330009091FF048D7FF2CF8091FE049091FF0465
:103340008B7FECCF812F837009F066C0F11012CF14
:10335000802F829586958770880F880F602F6F70F9
:10336000462E512C712C612C082E04C0440C551C87
:10337000661C771C0A94D2F740E050E0BA0104FFC3
:103380000FC04FE050E060E070E004C0440F551FF4
:10339000661F771F8A95D2F7409550956095709576
:1033A000812F869586958370823019F1D8F400912B
:1033B0007A0510917B0520917C0530917D05813047
:1033C00069F04429552966297729CB01BA01602380
:1033D0007123822393230E940C0ECCCE402A512AC3
:1033E000622A732ACB01BA01642975298629972993
:1033F000F2CF442955296629772900917A05109141
:103400007B0520917C0530917D05CB01BA016027B9
:10341000712782279327DFCF8695FF2011F0812F18
:103420008170882309F4A6CE802F829586958770B7
:10343000880F880F602F6F70462E512C712C612CD5
:10344000082E04C0440C551C661C771C0A94D2F745
:1034500040E050E0BA0104FF0FC04FE050E060E0F0
:1034600070E004C0440F551F661F771F8A95D2F77E
:103470004095509560957095812F869586958370BF
:10348000823019F1D8F400917105109172052091E4
:10349000730530917405813069F0442955296629F6
:1034A0007729CB01BA0160237123822393230E94E1
:1034B0009F0D60CE402A512A622A732ACB01BA019D
:1034C0006429752986299729F2CF44295529662927
:1034D0007729009171051091720520917305309143
:1034E0007405CB01BA016027712782279327DFCFAC
:1034F0001F70FF2029F0812F0E94E60D802F91CEB2
:10350000802F0E947606812F0E94AB0D33CE802F34
:10351000E2EFBE1609F44EC0EB1578F0F0EFBF16DF
:1035200019F121EFB21609F43DC0FF2009F464C07F
:10353000E11004CE812F8F713AC033EFB31609F436
:103540003EC094EFB912F1CFFF2009F44AC01F71B9
:10355000812F0E94E60DF8E01F9FC00111248360B7
:1035600080937505812F23C0FF20B9F0E11002CEB2
:103570001F7161E070E080E090E004C0660F771F8B
:10358000881F991F1A95D2F7009171051091720545
:103590002091730530917405A6CFE1E0EE1508F493
:1035A000E9CDE6CF812F8F71FF2009F4ADCF0E94C6
:1035B000E60DE0CD812F8F71FF20C9F3A5CFFF204D
:1035C00069F01F7161E070E080E090E004C0660F78
:1035D000771F881F991F1A95D2F769CF0E94070E8F
:1035E000C9CD81E00E94CE0D21E02E1508F0C2CD9C
:1035F00082E00E94CE0DBECDE11039CE812F8F71B9
:1036000083CFE2EFBE16D1F1EB1500F1F0EFBF165C
:1036100049F121EFB216D1F180910005EE2009F4B5
:1036200041C0882341F08091010591E08927809372
:10363000010510920005802FF11081CD0E940F121C
:1036400086E0F60111928A95E9F794CD34EFB3162E
:10365000C1F0B31688F085EFB812DECFF1108ACD35
:1036600081E007C0FF2009F485CD8091010591E03C
:103670008927809301057ECD81E0F826F09201052F
:1036800079CDF11077CD1092010574CDFF2039F07E
:1036900080910005882349F3109200056BCDEE2040
:1036A00021F368CD882309F465CDF11063CD8091B5
:1036B000010591E0892780930105EECF85E0DE01C9
:1036C000119601900D928A95E1F7F6012281898188
:1036D0009A812111BCC80E940006082FC0C8093079
:1036E000FDE51F0709F027C9E9C809302DE51207D4
:1036F00009F032C9DEC81F93CF93DF93809107058D
:10370000807FC1F4809104058823A1F08091390560
:10371000C09108056091020570910305409105056F
:1037200050910605D62FD723DA01A095B09516E063
:10373000C81304C0DF91CF911F91089590E0411507
:10374000510511F0DF3F31F401968770F1CF2A0F58
:103750003B1F17C0189FF001199FF00D1124E75F60
:10376000FA4F21812713F0CF20812613EDCF22813C
:103770002111EACF238134812417350740F3241B1C
:10378000350B283C310500F7209107052F7020618B
:103790002093070526E0289FF001299FF00D1124B2
:1037A000E25FFA4F80818F708061808382E095E0D4
:1037B0000E94EF13DF91CF911F910C945706BF9297
:1037C000CF92DF92EF92FF920F931F93CF93DF93ED
:1037D000CDB7DEB761970FB6F894DEBF0FBECDBF91
:1037E0008C0185E0F801DE011D9601900D928A950D
:1037F000E1F7D8012C9111963C9111971296EC901B
:1038000012978091050590910605009709F463C110
:103810004091020550910305642F65236F3F09F421
:103820005AC11396CD90DC90B0900405BB2009F4EA
:1038300013C1C816D906C0F1F601E81BF90BCF0178
:10384000FF24F394883C910508F0F12C8091070542
:10385000982F907FFF2009F4C1C091117DC0FE2CEC
:10386000531327C0421325C0E11023C08F7080611D
:103870008093070582E095E00E94EF138091070591
:10388000D80115968C938F2D61960FB6F894DEBFF4
:103890000FBECDBFDF91CF911F910F91FF90EF90A1
:1038A000DF90CF90BF900895809590958C0D9D1DD1
:1038B000C7CFCD2829F0822F83238F3F09F035C150
:1038C00080E0B82FB170DB2E80FF3CC080913905BD
:1038D0004091080556E0841315C02D873E878D85DD
:1038E0009E850E947509292F22952F702230F0F0B5
:1038F000243018F59F70F1F0F8019581907FD1F494
:10390000D12C1EC090E0589FF001599FF00D11245A
:10391000E75FFA4F6181361306C06081261303C04A
:103920006281E6120FC001968770D5CF9F7011F0AB
:10393000882331F3805E883018F3C8010E94EF13AA
:10394000FD2CA1CFEE2009F49ECF80910705816068
:1039500080930705F12C97CF531313C0421311C066
:10396000E1100FC0D80115968C93C8010E94EF1387
:1039700086E0F801A2E0B5E001900D928A95E1F7AA
:1039800082CF2D873E878D859E850E947F09882363
:1039900009F1EE20F9F080910705803270F0209156
:1039A00002053091030538872F831986DB86CA8686
:1039B0008C87CE0107960E94EF1386E0F801A2E003
:1039C000B5E001900D928A95E1F70E947B1BFF24E0
:1039D000F39459CFC8010E94EF13F9CF91110CC095
:1039E00082E095E00E94EF1386E0E2E0F5E0DF017F
:1039F0001D928A95E9F747CF531312C0421310C0A6
:103A0000E1100EC0F8018583C8010E94EF13E2E0C7
:103A1000F5E086E0DF011D928A95E9F7FB2C33CFB4
:103A20002D873E878D859E850E947F09882391F290
:103A3000EE2081F280910705803208F4BECF2091FC
:103A40000205309103053A8329831B82DD82CC82F3
:103A50008E83CE010196AFCFC816D90640F0C81AA2
:103A6000D90AB8ECCB16D10448F0F12CBDCF809523
:103A700090958C0D9D1D883C9105B8F7FE2CEE208D
:103A800009F4A8CF531316C0421314C08091070540
:103A900080FD6ECF982F907F09F46ACFF80185835F
:103AA000903F09F462CF982F907F905F8F70892BA1
:103AB00085835BCF2D873E878D859E850E947F09FC
:103AC00081117BCF80910705816080930705C80134
:103AD0000E94EF13D8CEEE2009F47CCF2D873E87CD
:103AE0008D859E850E947F09F82E882309F472CF68
:103AF00086E0F801A2E0B5E001900D928A95E1F729
:103B000080910205909103050E94750992959F701E
:103B1000963041F48091010591E089278093010559
:103B2000909300050E947B1BAECE81E08E25C9CE0E
:103B30001F93CF93DF93CDB7DEB767970FB6F89497
:103B4000DEBF0FBECDBF6D8B7E8B8F8B8E899F8925
:103B5000892BE1F0852F84238F3F09F098C05FEF18
:103B60004FEF14C030910105332309F44EC0E42F08
:103B7000F0E036E0539FE00DF11D1124EE0FFF1F22
:103B8000E95EFE4F40815181822B8C931A8A198AFB
:103B90004B8B5C8B85E0FE017396DE011D960190D8
:103BA0000D928A95E1F786E0FE013D96DE011796BB
:103BB00001900D928A95E1F7CE0107960E94DF1BD6
:103BC000811112C086E0FE013796DE011196019048
:103BD0000D928A95E1F78A859B85892B29F08F8143
:103BE000988589238F3FC9F516E08091390590911A
:103BF0000805891320C067960FB6F894DEBF0FBE84
:103C0000CDBFDF91CF911F91089580958223BDCFC5
:103C100096E0929FD001939FB00D1124A75FBA4FF9
:103C2000FE01319601900D929A95E1F78093080577
:103C30000E945706D9CF819FC0011124875F9A4FF8
:103C40000E94DF1B8823B9F28091390590E001962C
:103C50008770992780933905C8CF2091080530E0F7
:103C6000C9010196877099274091390548171906AF
:103C700079F60E94160E109208051092390586E01A
:103C8000E2E0F5E0DF011D928A95E9F7ADCF81E032
:103C900090E0042E01C0880F0A94EAF7A52FB0E047
:103CA000A651BE4F2C913D8931115CCF322F382364
:103CB0005BCF8F929F92AF92BF92CF92DF92EF92A3
:103CC000FF920F931F93CF93DF9380910A019091FE
:103CD0000B01892B91F08091E2018F5F8093E201CB
:103CE00081110BC00E94790C90E090930B0180939E
:103CF0000A01892B11F40E94310B0DE815E07801BF
:103D0000C0E0912C37E0C32ECC0E8C2F0E94250CE6
:103D10008C2D0E94250C8C2F0E94F00CD7019D91B8
:103D20007D01D12C891729F0FD0131978083DD2495
:103D3000D3948C2D0E94F00CF7019681891709F419
:103D400066C0868381E08D29982A0E942B0ACF5F66
:103D5000C730C1F60E94620D6AEF70E00E94342203
:103D6000882ED091E101DD2309F45DC01092E101BC
:103D7000E0918305F09184057F012EE0E20EF11CB5
:103D800040E0CBEF2AEFC22ED12C51915B3F81F066
:103D9000652F70E0282D392F8517D8F1261B370B9A
:103DA0002E313105E4F19F0121503109D901CC9325
:103DB000EE16FF0651F74093E101911002C0411148
:103DC00034C01092E001A0918305B0918405209148
:103DD000E101E0EAF5E04EEA55E090E06191E801AA
:103DE00039918E01631751F06C916B3FD1F48C9334
:103DF000BF0161507109EB01388321E011964E1724
:103E00005F0761F72093E1019093E00112C080E029
:103E10009ACFD601A61BB70B2A0F3B1FC1CF4D2F40
:103E2000C7CF91E0EBCF9110CCCF9091E0019111F1
:103E3000C8CF892DDF91CF911F910F91FF90EF9007
:103E4000DF90CF90BF90AF909F908F900895CDB7A7
:103E5000DEB72A970FB6F894DEBF0FBECDBF84B78A
:103E6000877F84BF0FB6F894A89580916000886121
:103E700080936000109260000FBE80E890E00FB663
:103E8000F89480936100909361000FBE85B78068BD
:103E900085BF85B7806885BF0E9482020E944D035E
:103EA0008091E20084608093E20078948091EC0538
:103EB0008823A1F01091E9001F709091EC00892FE8
:103EC000817090FD80E8182B1092E9008091E80045
:103ED00083FD0E942B0E1F701093E90082E084BDC9
:103EE00093E095BD9AEF97BD80936E000E94790C88
:103EF00090E090930B0180930A010E942B0A0E948C
:103F00003A0AADE8B5E0E0EAF5E011921D9225E04D
:103F1000EE3AF207D1F78EE090E00E94AA22809359
:103F2000830590938405FC010E962BEF2193E817EF
:103F3000F907E1F790E080E00E9470228F3E9E4FEB
:103F400011F00E94B10B8CE090E00E94622290E0A0
:103F5000B0E0A0E08093850590938605A093870547
:103F6000B093880589EA8093800089E0809381007E
:103F700024982C983F988AB18F7C8AB96E98479A7A
:103F80008BB180638BB9769A8FE090E00E946A22B1
:103F90006093890570938A0580938B0590938C05B7
:103FA00067708FEF689FB0011124759567957595BF
:103FB00067957727709389006093880070938B00D2
:103FC00060938A0070938D0060938C000E94310B87
:103FD00090E080E00E9470228F3E9E4F11F00E9480
:103FE000B10B82E090E00E9462228093B8050E94AB
:103FF000410A90939C0580939B0583E090E00E948A
:104000006222682F70E090E080E00E940C0E8CE04D
:1040100091E090939E0580939D05DD24D394CC245C
:10402000CA9480E1B82E92E1A92E28E1E22EF12C6B
:1040300030E4932E8091EC05853009F458C00E943D
:10404000591EE9EBF5E0A0EAB5E010E000E0302F02
:104050008D912191281709F497C090E088248394CA
:104060002827422F482109F48AC099833A8388215E
:1040700091E009F490E09B830E94620D8160782FAB
:104080009D838C8349815A816B818D810E94981D0B
:10409000F801E754FA4F8081882680828091B50527
:1040A0009091B6050E942C059C019091B40599232E
:1040B00019F02E31310578F02091B0058090B105CE
:1040C0000091B2051091B305211174C0882D802B89
:1040D000812B09F0E5C00E94B7069091B7058917BA
:1040E00009F4A8CF0E94B7068093B705A3CF8091AB
:1040F000EC05843009F110929F050FB6F894A8954D
:10410000E09260000FBE9092600083B7817F846070
:1041100083BF83B7816083BF7894889583B78E7F90
:1041200083BF0FB6F894A895809160008861809352
:104130006000109260000FBE8091EB05882309F4A7
:1041400079CF0E94790C90E090930B0180930A0143
:104150000E942B0A0E943A0AE0EAF5E0119245E03B
:10416000EE3AF407D9F70E94591EE0EAF5E0819192
:10417000811182C085E0EE3AF807C9F75BCF9F5FF7
:10418000880C963009F06DCF0F5F1F4F0E30110570
:1041900009F05DCFCE82CF8218860E94620D8160C9
:1041A000782F9A8789874E815F8168858A850E94EA
:1041B000981D74CF9F3F19F09F5F9093B40512161E
:1041C00024F40E94B8048093B0058091B00587FF65
:1041D00005C00E94B80481958093B005181424F49A
:1041E0000E94B8048093B1058091B10587FF05C096
:1041F0000E94B80481958093B1053091B0053323B6
:10420000A1F02091B105222381F045EB3403C001D8
:104210001124992359F19093B00545EB24039001A3
:104220001124332331F13093B105101624F40E9488
:1042300096048093B2058091B20587FF05C00E9465
:10424000960481958093B205111624F40E94960479
:104250008093B3058091B30587FF05C00E94960443
:1042600081958093B3050E946E0D35CFD092B00535
:10427000D4CFD092B105D9CFB9BCA9BC09B400FE46
:10428000FDCF8091D8008F7D8093D8008091E00091
:1042900082608093E0008091E00081FDFCCFCACE77
:1042A0009F3F09F089CF9ACF1F921FB61F9211240A
:1042B0008F939F93AF93BF9380919F05811113C0FC
:1042C00080917E0590917F05A0918005B091810538
:1042D0004196A11DB11D80937E0590937F05A0930B
:1042E0008005B0938105BF91AF919F918F911F90F1
:1042F0001FBE1F9018951092B9008CE08093B800F3
:104300000895EF92FF920F931F93CF93DF93182F8F
:10431000EB011092BC0084EA8093BC000E94620D05
:104320007C018091BC0087FF27C08091B900887F05
:10433000883029F08091B900887F8031D9F51093B9
:10434000BB0084E88093BC000E94620D8C018091C8
:10435000BC0087FF24C02091B900287F90E080E056
:104360002831B1F081E090E0203411F490E080E059
:104370009195819591090CC0CF3FDC0791F20E9485
:10438000620D8E199F098C179D0758F28EEF9FEFD3
:10439000DF91CF911F910F91FF90EF900895CF3F44
:1043A000DC07A9F20E94620D801B910B8C179D0700
:1043B00070F2ECCF8FEF9FEFEBCF0F931F93CF9364
:1043C000DF93EB018093BB0084E88093BC000E94E4
:1043D000620D8C018091BC0087FF11C02091B90053
:1043E000287F81E090E0283211F490E080E0919500
:1043F00081959109DF91CF911F910F910895CF3F42
:10440000DC0741F30E94620D801B910B8C179D0706
:1044100008F38EEF9FEFEECF0F931F93CF93DF93B1
:10442000EC0184E88093BC000E94620D8C018091B5
:10443000BC0087FF08C08091BB0090E0DF91CF9166
:104440001F910F910895CF3FDC0789F30E94620D01
:10445000801B910B8C179D0750F38EEF9FEFEECFD3
:1044600084E98093BC000895AA1BBB1B51E107C0DF
:10447000AA1FBB1FA617B70710F0A61BB70B881FF4
:10448000991F5A95A9F780959095BC01CD01089583
:1044900097FB072E16F4009407D077FD09D00E94F1
:1044A000342207FC05D03EF4909581959F4F0895E6
:1044B000709561957F4F0895EE0FFF1F0590F49161
:1044C000E02D0994F999FECF92BD81BDF89A992704
:1044D00080B50895A6E1B0E044E050E00C949C2241
:1044E000A8E1B0E042E050E00C949C22262FF9991C
:1044F000FECF92BD81BDF89A019700B4021639F043
:104500001FBA20BD0FB6F894FA9AF99A0FBE089513
:104510000396272F0E9477220E947622252F0E9441
:104520007722242F0C9477220196272F0E9477223E
:104530000C947622DC01CB01FC01F999FECF06C078
:10454000F2BDE1BDF89A319600B40D924150504051
:10455000B8F708950F931F93CF93DF93823091059F
:1045600010F482E090E0E091F805F091F90530E078
:1045700020E0B0E0A0E0309799F42115310509F46E
:1045800047C0281B390B24303105C0F58A819B8137
:104590006115710571F1FB0193838283FE0111C0E6
:1045A000408151810281138148175907F8F048175B
:1045B000590799F4109761F012960C93129713967D
:1045C0001C933296CF01DF91CF911F910F910895E7
:1045D0000093F8051093F905F4CF2115310519F072
:1045E0004217530718F49A01BD01EF01DF01F801EA
:1045F000C2CF9093F9058093F805D0CFFE01E20F6A
:10460000F31F819391932250310939832883DACFA4
:104610002091F6053091F705232B41F420910201FA
:10462000309103013093F7052093F60520910001A6
:10463000309101012115310541F42DB73EB740916C
:10464000040150910501241B350B4091F605509152
:10465000F7054217530708F0B5CF241B350B281771
:10466000390708F4AFCFBC016E5F7F4F26173707BD
:1046700008F4A8CF640F751F7093F7056093F605D3
:10468000FA01819391939ECFCF93DF930097E9F046
:10469000FC01329713821282C091F805D091F9057E
:1046A000DE0130E020E02097A1F420813181820FEB
:1046B000931F2091F6053091F7052817390709F067
:1046C00067C0F093F705E093F605DF91CF91089569
:1046D000DA01AE17BF0708F040C012964D915C9109
:1046E00013979D014115510599F7D9011396FC9334
:1046F000EE9312974D915D91A40FB51FEA17FB073A
:1047000079F4808191810296840F951FD9011196C9
:104710009C938E938281938113969C938E93129790
:10472000B0E0A0E08A819B810097B9F5FE018191FC
:104730009191E80FF91F8091F6059091F7058E177A
:104740009F0719F6109761F51092F9051092F80578
:10475000D093F705C093F605B8CFB383A283408109
:104760005181840F951FA817B90771F44E5F5F4FF1
:104770008D919C911197480F591F51834083129638
:104780008D919C91938382832115310509F0ADCFE2
:10479000F093F905E093F80598CFDE01EC01C2CF64
:1047A00013961C921E921297D3CFF894FFCF8E09C6
:1047B0008E099709970999099709970997098E0909
:1047C0008E099E09970997099E09120A1E0A230A53
:1047D0001C0A210A280A260A0E0F360FD810360F97
:1047E000D810690F8A0FD8109310A010851885185B
:1047F000F518F51846196019011BBA18A219781A8C
:04480000871A871A72
:104804000000FA052000F204F80120001404EB0A69
:10481400C00A8A0A4F0A01000D010D020D030D049E
:104824000D050D000C010C020C030C040C050C000E
:104834000B010B020B030B040B050B000A010A020C
:104844000A030A040A050A00090109020903090402
:1048540009050900080108020803080408050800FE
:1048640007010702070307040705070006010602FC
:1048740006030604060506000501050205030504F2
:1048840005050500040104020403040404050400EE
:1048940003010302030303040305030002010202EC
:1048A40002030204020502000101010201030104E2
:1048B40001050100000100020003000400050000DE
:00000001FF
